{
	"contracts/BusFareSystem.sol": {
		"BusPayment": {
			"abi": [
				{
					"inputs": [
						{
							"internalType": "address",
							"name": "_customer",
							"type": "address"
						}
					],
					"stateMutability": "nonpayable",
					"type": "constructor"
				},
				{
					"anonymous": false,
					"inputs": [
						{
							"indexed": true,
							"internalType": "address",
							"name": "busCompany",
							"type": "address"
						},
						{
							"indexed": false,
							"internalType": "uint256",
							"name": "amount",
							"type": "uint256"
						},
						{
							"indexed": false,
							"internalType": "uint256",
							"name": "timestamp",
							"type": "uint256"
						}
					],
					"name": "FundsWithdrawn",
					"type": "event"
				},
				{
					"anonymous": false,
					"inputs": [
						{
							"indexed": true,
							"internalType": "address",
							"name": "customer",
							"type": "address"
						},
						{
							"indexed": false,
							"internalType": "uint256",
							"name": "amount",
							"type": "uint256"
						},
						{
							"indexed": false,
							"internalType": "uint256",
							"name": "stops",
							"type": "uint256"
						},
						{
							"indexed": false,
							"internalType": "uint256",
							"name": "timestamp",
							"type": "uint256"
						}
					],
					"name": "PaymentMade",
					"type": "event"
				},
				{
					"anonymous": false,
					"inputs": [
						{
							"indexed": true,
							"internalType": "address",
							"name": "customer",
							"type": "address"
						},
						{
							"indexed": false,
							"internalType": "uint256",
							"name": "stopNumber",
							"type": "uint256"
						},
						{
							"indexed": false,
							"internalType": "uint256",
							"name": "timestamp",
							"type": "uint256"
						}
					],
					"name": "StopAdded",
					"type": "event"
				},
				{
					"inputs": [],
					"name": "PRICE_ABOVE_10",
					"outputs": [
						{
							"internalType": "uint256",
							"name": "",
							"type": "uint256"
						}
					],
					"stateMutability": "view",
					"type": "function"
				},
				{
					"inputs": [],
					"name": "PRICE_UP_TO_10",
					"outputs": [
						{
							"internalType": "uint256",
							"name": "",
							"type": "uint256"
						}
					],
					"stateMutability": "view",
					"type": "function"
				},
				{
					"inputs": [],
					"name": "addStop",
					"outputs": [],
					"stateMutability": "nonpayable",
					"type": "function"
				},
				{
					"inputs": [],
					"name": "busCompany",
					"outputs": [
						{
							"internalType": "address",
							"name": "",
							"type": "address"
						}
					],
					"stateMutability": "view",
					"type": "function"
				},
				{
					"inputs": [],
					"name": "calculatePayment",
					"outputs": [
						{
							"internalType": "uint256",
							"name": "",
							"type": "uint256"
						}
					],
					"stateMutability": "view",
					"type": "function"
				},
				{
					"inputs": [],
					"name": "customer",
					"outputs": [
						{
							"internalType": "address",
							"name": "",
							"type": "address"
						}
					],
					"stateMutability": "view",
					"type": "function"
				},
				{
					"inputs": [],
					"name": "getContractBalance",
					"outputs": [
						{
							"internalType": "uint256",
							"name": "",
							"type": "uint256"
						}
					],
					"stateMutability": "view",
					"type": "function"
				},
				{
					"inputs": [],
					"name": "getCurrentStops",
					"outputs": [
						{
							"internalType": "uint256",
							"name": "",
							"type": "uint256"
						}
					],
					"stateMutability": "view",
					"type": "function"
				},
				{
					"inputs": [],
					"name": "makePayment",
					"outputs": [],
					"stateMutability": "payable",
					"type": "function"
				},
				{
					"inputs": [],
					"name": "totalStops",
					"outputs": [
						{
							"internalType": "uint256",
							"name": "",
							"type": "uint256"
						}
					],
					"stateMutability": "view",
					"type": "function"
				},
				{
					"inputs": [],
					"name": "withdrawFunds",
					"outputs": [],
					"stateMutability": "nonpayable",
					"type": "function"
				}
			],
			"devdoc": {
				"kind": "dev",
				"methods": {},
				"version": 1
			},
			"evm": {
				"assembly": "    /* \"contracts/BusFareSystem.sol\":62:2718  contract BusPayment {\r... */\n  mstore(0x40, 0x80)\n    /* \"contracts/BusFareSystem.sol\":934:1063  constructor(address _customer) {\r... */\n  callvalue\n  dup1\n  iszero\n  tag_1\n  jumpi\n  0x00\n  dup1\n  revert\ntag_1:\n  pop\n  mload(0x40)\n  sub(codesize, bytecodeSize)\n  dup1\n  bytecodeSize\n  dup4\n  codecopy\n  dup2\n  dup2\n  add\n  0x40\n  mstore\n  dup2\n  add\n  swap1\n  tag_2\n  swap2\n  swap1\n  tag_3\n  jump\t// in\ntag_2:\n    /* \"contracts/BusFareSystem.sol\":989:999  msg.sender */\n  caller\n    /* \"contracts/BusFareSystem.sol\":976:986  busCompany */\n  0x00\n  dup1\n    /* \"contracts/BusFareSystem.sol\":976:999  busCompany = msg.sender */\n  0x0100\n  exp\n  dup2\n  sload\n  dup2\n  0xffffffffffffffffffffffffffffffffffffffff\n  mul\n  not\n  and\n  swap1\n  dup4\n  0xffffffffffffffffffffffffffffffffffffffff\n  and\n  mul\n  or\n  swap1\n  sstore\n  pop\n    /* \"contracts/BusFareSystem.sol\":1021:1030  _customer */\n  dup1\n    /* \"contracts/BusFareSystem.sol\":1010:1018  customer */\n  0x01\n  0x00\n    /* \"contracts/BusFareSystem.sol\":1010:1030  customer = _customer */\n  0x0100\n  exp\n  dup2\n  sload\n  dup2\n  0xffffffffffffffffffffffffffffffffffffffff\n  mul\n  not\n  and\n  swap1\n  dup4\n  0xffffffffffffffffffffffffffffffffffffffff\n  and\n  mul\n  or\n  swap1\n  sstore\n  pop\n    /* \"contracts/BusFareSystem.sol\":1054:1055  0 */\n  0x00\n    /* \"contracts/BusFareSystem.sol\":1041:1051  totalStops */\n  0x02\n    /* \"contracts/BusFareSystem.sol\":1041:1055  totalStops = 0 */\n  dup2\n  swap1\n  sstore\n  pop\n    /* \"contracts/BusFareSystem.sol\":934:1063  constructor(address _customer) {\r... */\n  pop\n    /* \"contracts/BusFareSystem.sol\":62:2718  contract BusPayment {\r... */\n  jump(tag_6)\n    /* \"#utility.yul\":7:150   */\ntag_8:\n  0x00\n    /* \"#utility.yul\":95:101   */\n  dup2\n    /* \"#utility.yul\":89:102   */\n  mload\n    /* \"#utility.yul\":80:102   */\n  swap1\n  pop\n    /* \"#utility.yul\":111:144   */\n  tag_10\n    /* \"#utility.yul\":138:143   */\n  dup2\n    /* \"#utility.yul\":111:144   */\n  tag_11\n  jump\t// in\ntag_10:\n    /* \"#utility.yul\":70:150   */\n  swap3\n  swap2\n  pop\n  pop\n  jump\t// out\n    /* \"#utility.yul\":156:440   */\ntag_3:\n  0x00\n    /* \"#utility.yul\":275:277   */\n  0x20\n    /* \"#utility.yul\":263:272   */\n  dup3\n    /* \"#utility.yul\":254:261   */\n  dup5\n    /* \"#utility.yul\":250:273   */\n  sub\n    /* \"#utility.yul\":246:278   */\n  slt\n    /* \"#utility.yul\":243:245   */\n  iszero\n  tag_13\n  jumpi\n    /* \"#utility.yul\":291:292   */\n  0x00\n    /* \"#utility.yul\":288:289   */\n  dup1\n    /* \"#utility.yul\":281:293   */\n  revert\n    /* \"#utility.yul\":243:245   */\ntag_13:\n    /* \"#utility.yul\":334:335   */\n  0x00\n    /* \"#utility.yul\":359:423   */\n  tag_14\n    /* \"#utility.yul\":415:422   */\n  dup5\n    /* \"#utility.yul\":406:412   */\n  dup3\n    /* \"#utility.yul\":395:404   */\n  dup6\n    /* \"#utility.yul\":391:413   */\n  add\n    /* \"#utility.yul\":359:423   */\n  tag_8\n  jump\t// in\ntag_14:\n    /* \"#utility.yul\":349:423   */\n  swap2\n  pop\n    /* \"#utility.yul\":305:433   */\n  pop\n    /* \"#utility.yul\":233:440   */\n  swap3\n  swap2\n  pop\n  pop\n  jump\t// out\n    /* \"#utility.yul\":446:542   */\ntag_15:\n  0x00\n    /* \"#utility.yul\":512:536   */\n  tag_17\n    /* \"#utility.yul\":530:535   */\n  dup3\n    /* \"#utility.yul\":512:536   */\n  tag_18\n  jump\t// in\ntag_17:\n    /* \"#utility.yul\":501:536   */\n  swap1\n  pop\n    /* \"#utility.yul\":491:542   */\n  swap2\n  swap1\n  pop\n  jump\t// out\n    /* \"#utility.yul\":548:674   */\ntag_18:\n  0x00\n    /* \"#utility.yul\":625:667   */\n  0xffffffffffffffffffffffffffffffffffffffff\n    /* \"#utility.yul\":618:623   */\n  dup3\n    /* \"#utility.yul\":614:668   */\n  and\n    /* \"#utility.yul\":603:668   */\n  swap1\n  pop\n    /* \"#utility.yul\":593:674   */\n  swap2\n  swap1\n  pop\n  jump\t// out\n    /* \"#utility.yul\":680:802   */\ntag_11:\n    /* \"#utility.yul\":753:777   */\n  tag_21\n    /* \"#utility.yul\":771:776   */\n  dup2\n    /* \"#utility.yul\":753:777   */\n  tag_15\n  jump\t// in\ntag_21:\n    /* \"#utility.yul\":746:751   */\n  dup2\n    /* \"#utility.yul\":743:778   */\n  eq\n    /* \"#utility.yul\":733:735   */\n  tag_22\n  jumpi\n    /* \"#utility.yul\":792:793   */\n  0x00\n    /* \"#utility.yul\":789:790   */\n  dup1\n    /* \"#utility.yul\":782:794   */\n  revert\n    /* \"#utility.yul\":733:735   */\ntag_22:\n    /* \"#utility.yul\":723:802   */\n  pop\n  jump\t// out\n    /* \"contracts/BusFareSystem.sol\":62:2718  contract BusPayment {\r... */\ntag_6:\n  dataSize(sub_0)\n  dup1\n  dataOffset(sub_0)\n  0x00\n  codecopy\n  0x00\n  return\nstop\n\nsub_0: assembly {\n        /* \"contracts/BusFareSystem.sol\":62:2718  contract BusPayment {\r... */\n      mstore(0x40, 0x80)\n      jumpi(tag_1, lt(calldatasize, 0x04))\n      shr(0xe0, calldataload(0x00))\n      dup1\n      0x6f9fb98a\n      gt\n      tag_13\n      jumpi\n      dup1\n      0x6f9fb98a\n      eq\n      tag_7\n      jumpi\n      dup1\n      0x76c7bc26\n      eq\n      tag_8\n      jumpi\n      dup1\n      0xac8ee5ed\n      eq\n      tag_9\n      jumpi\n      dup1\n      0xc12b8593\n      eq\n      tag_10\n      jumpi\n      dup1\n      0xd2c1ec5f\n      eq\n      tag_11\n      jumpi\n      dup1\n      0xd8d79700\n      eq\n      tag_12\n      jumpi\n      jump(tag_1)\n    tag_13:\n      dup1\n      0x24600fc3\n      eq\n      tag_2\n      jumpi\n      dup1\n      0x2804b2c0\n      eq\n      tag_3\n      jumpi\n      dup1\n      0x28f40fa9\n      eq\n      tag_4\n      jumpi\n      dup1\n      0x39bde84c\n      eq\n      tag_5\n      jumpi\n      dup1\n      0x5a6e9d54\n      eq\n      tag_6\n      jumpi\n    tag_1:\n      0x00\n      dup1\n      revert\n        /* \"contracts/BusFareSystem.sol\":2099:2395  function withdrawFunds() public onlyBusCompany {\r... */\n    tag_2:\n      callvalue\n      dup1\n      iszero\n      tag_14\n      jumpi\n      0x00\n      dup1\n      revert\n    tag_14:\n      pop\n      tag_15\n      tag_16\n      jump\t// in\n    tag_15:\n      stop\n        /* \"contracts/BusFareSystem.sol\":121:144  address public customer */\n    tag_3:\n      callvalue\n      dup1\n      iszero\n      tag_17\n      jumpi\n      0x00\n      dup1\n      revert\n    tag_17:\n      pop\n      tag_18\n      tag_19\n      jump\t// in\n    tag_18:\n      mload(0x40)\n      tag_20\n      swap2\n      swap1\n      tag_21\n      jump\t// in\n    tag_20:\n      mload(0x40)\n      dup1\n      swap2\n      sub\n      swap1\n      return\n        /* \"contracts/BusFareSystem.sol\":2622:2715  function getCurrentStops() public view returns (uint256) {\r... */\n    tag_4:\n      callvalue\n      dup1\n      iszero\n      tag_22\n      jumpi\n      0x00\n      dup1\n      revert\n    tag_22:\n      pop\n      tag_23\n      tag_24\n      jump\t// in\n    tag_23:\n      mload(0x40)\n      tag_25\n      swap2\n      swap1\n      tag_26\n      jump\t// in\n    tag_25:\n      mload(0x40)\n      dup1\n      swap2\n      sub\n      swap1\n      return\n        /* \"contracts/BusFareSystem.sol\":1302:1564  function calculatePayment() public view returns (uint256) {\r... */\n    tag_5:\n      callvalue\n      dup1\n      iszero\n      tag_27\n      jumpi\n      0x00\n      dup1\n      revert\n    tag_27:\n      pop\n      tag_28\n      tag_29\n      jump\t// in\n    tag_28:\n      mload(0x40)\n      tag_30\n      swap2\n      swap1\n      tag_26\n      jump\t// in\n    tag_30:\n      mload(0x40)\n      dup1\n      swap2\n      sub\n      swap1\n      return\n        /* \"contracts/BusFareSystem.sol\":1106:1240  function addStop() public onlyCustomer {\r... */\n    tag_6:\n      callvalue\n      dup1\n      iszero\n      tag_31\n      jumpi\n      0x00\n      dup1\n      revert\n    tag_31:\n      pop\n      tag_32\n      tag_33\n      jump\t// in\n    tag_32:\n      stop\n        /* \"contracts/BusFareSystem.sol\":2455:2562  function getContractBalance() public view returns (uint256) {\r... */\n    tag_7:\n      callvalue\n      dup1\n      iszero\n      tag_34\n      jumpi\n      0x00\n      dup1\n      revert\n    tag_34:\n      pop\n      tag_35\n      tag_36\n      jump\t// in\n    tag_35:\n      mload(0x40)\n      tag_37\n      swap2\n      swap1\n      tag_26\n      jump\t// in\n    tag_37:\n      mload(0x40)\n      dup1\n      swap2\n      sub\n      swap1\n      return\n        /* \"contracts/BusFareSystem.sol\":279:327  uint256 public constant PRICE_ABOVE_10 = 2 ether */\n    tag_8:\n      callvalue\n      dup1\n      iszero\n      tag_38\n      jumpi\n      0x00\n      dup1\n      revert\n    tag_38:\n      pop\n      tag_39\n      tag_40\n      jump\t// in\n    tag_39:\n      mload(0x40)\n      tag_41\n      swap2\n      swap1\n      tag_26\n      jump\t// in\n    tag_41:\n      mload(0x40)\n      dup1\n      swap2\n      sub\n      swap1\n      return\n        /* \"contracts/BusFareSystem.sol\":151:176  uint256 public totalStops */\n    tag_9:\n      callvalue\n      dup1\n      iszero\n      tag_42\n      jumpi\n      0x00\n      dup1\n      revert\n    tag_42:\n      pop\n      tag_43\n      tag_44\n      jump\t// in\n    tag_43:\n      mload(0x40)\n      tag_45\n      swap2\n      swap1\n      tag_26\n      jump\t// in\n    tag_45:\n      mload(0x40)\n      dup1\n      swap2\n      sub\n      swap1\n      return\n        /* \"contracts/BusFareSystem.sol\":224:272  uint256 public constant PRICE_UP_TO_10 = 1 ether */\n    tag_10:\n      callvalue\n      dup1\n      iszero\n      tag_46\n      jumpi\n      0x00\n      dup1\n      revert\n    tag_46:\n      pop\n      tag_47\n      tag_48\n      jump\t// in\n    tag_47:\n      mload(0x40)\n      tag_49\n      swap2\n      swap1\n      tag_26\n      jump\t// in\n    tag_49:\n      mload(0x40)\n      dup1\n      swap2\n      sub\n      swap1\n      return\n        /* \"contracts/BusFareSystem.sol\":89:114  address public busCompany */\n    tag_11:\n      callvalue\n      dup1\n      iszero\n      tag_50\n      jumpi\n      0x00\n      dup1\n      revert\n    tag_50:\n      pop\n      tag_51\n      tag_52\n      jump\t// in\n    tag_51:\n      mload(0x40)\n      tag_53\n      swap2\n      swap1\n      tag_21\n      jump\t// in\n    tag_53:\n      mload(0x40)\n      dup1\n      swap2\n      sub\n      swap1\n      return\n        /* \"contracts/BusFareSystem.sol\":1631:2024  function makePayment() public payable onlyCustomer {\r... */\n    tag_12:\n      tag_54\n      tag_55\n      jump\t// in\n    tag_54:\n      stop\n        /* \"contracts/BusFareSystem.sol\":2099:2395  function withdrawFunds() public onlyBusCompany {\r... */\n    tag_16:\n        /* \"contracts/BusFareSystem.sol\":857:867  busCompany */\n      0x00\n      dup1\n      sload\n      swap1\n      0x0100\n      exp\n      swap1\n      div\n      0xffffffffffffffffffffffffffffffffffffffff\n      and\n        /* \"contracts/BusFareSystem.sol\":843:867  msg.sender == busCompany */\n      0xffffffffffffffffffffffffffffffffffffffff\n      and\n        /* \"contracts/BusFareSystem.sol\":843:853  msg.sender */\n      caller\n        /* \"contracts/BusFareSystem.sol\":843:867  msg.sender == busCompany */\n      0xffffffffffffffffffffffffffffffffffffffff\n      and\n      eq\n        /* \"contracts/BusFareSystem.sol\":835:902  require(msg.sender == busCompany, \"Only bus company can call this\") */\n      tag_57\n      jumpi\n      mload(0x40)\n      0x08c379a000000000000000000000000000000000000000000000000000000000\n      dup2\n      mstore\n      0x04\n      add\n      tag_58\n      swap1\n      tag_59\n      jump\t// in\n    tag_58:\n      mload(0x40)\n      dup1\n      swap2\n      sub\n      swap1\n      revert\n    tag_57:\n        /* \"contracts/BusFareSystem.sol\":2157:2172  uint256 balance */\n      0x00\n        /* \"contracts/BusFareSystem.sol\":2175:2196  address(this).balance */\n      selfbalance\n        /* \"contracts/BusFareSystem.sol\":2157:2196  uint256 balance = address(this).balance */\n      swap1\n      pop\n        /* \"contracts/BusFareSystem.sol\":2225:2226  0 */\n      0x00\n        /* \"contracts/BusFareSystem.sol\":2215:2222  balance */\n      dup2\n        /* \"contracts/BusFareSystem.sol\":2215:2226  balance > 0 */\n      gt\n        /* \"contracts/BusFareSystem.sol\":2207:2251  require(balance > 0, \"No funds to withdraw\") */\n      tag_61\n      jumpi\n      mload(0x40)\n      0x08c379a000000000000000000000000000000000000000000000000000000000\n      dup2\n      mstore\n      0x04\n      add\n      tag_62\n      swap1\n      tag_63\n      jump\t// in\n    tag_62:\n      mload(0x40)\n      dup1\n      swap2\n      sub\n      swap1\n      revert\n    tag_61:\n        /* \"contracts/BusFareSystem.sol\":2292:2302  busCompany */\n      0x00\n      dup1\n      sload\n      swap1\n      0x0100\n      exp\n      swap1\n      div\n      0xffffffffffffffffffffffffffffffffffffffff\n      and\n        /* \"contracts/BusFareSystem.sol\":2277:2329  FundsWithdrawn(busCompany, balance, block.timestamp) */\n      0xffffffffffffffffffffffffffffffffffffffff\n      and\n      0xfbc3a599b784fe88772fc5abcc07223f64ca0b13acc341f4fb1e46bef0510eb4\n        /* \"contracts/BusFareSystem.sol\":2304:2311  balance */\n      dup3\n        /* \"contracts/BusFareSystem.sol\":2313:2328  block.timestamp */\n      timestamp\n        /* \"contracts/BusFareSystem.sol\":2277:2329  FundsWithdrawn(busCompany, balance, block.timestamp) */\n      mload(0x40)\n      tag_64\n      swap3\n      swap2\n      swap1\n      tag_65\n      jump\t// in\n    tag_64:\n      mload(0x40)\n      dup1\n      swap2\n      sub\n      swap1\n      log2\n        /* \"contracts/BusFareSystem.sol\":2358:2368  busCompany */\n      0x00\n      dup1\n      sload\n      swap1\n      0x0100\n      exp\n      swap1\n      div\n      0xffffffffffffffffffffffffffffffffffffffff\n      and\n        /* \"contracts/BusFareSystem.sol\":2350:2378  payable(busCompany).transfer */\n      0xffffffffffffffffffffffffffffffffffffffff\n      and\n        /* \"contracts/BusFareSystem.sol\":2350:2387  payable(busCompany).transfer(balance) */\n      0x08fc\n        /* \"contracts/BusFareSystem.sol\":2379:2386  balance */\n      dup3\n        /* \"contracts/BusFareSystem.sol\":2350:2387  payable(busCompany).transfer(balance) */\n      swap1\n      dup2\n      iszero\n      mul\n      swap1\n      mload(0x40)\n      0x00\n      mload(0x40)\n      dup1\n      dup4\n      sub\n      dup2\n      dup6\n      dup9\n      dup9\n      call\n      swap4\n      pop\n      pop\n      pop\n      pop\n      iszero\n      dup1\n      iszero\n      tag_67\n      jumpi\n      returndatasize\n      0x00\n      dup1\n      returndatacopy\n      revert(0x00, returndatasize)\n    tag_67:\n      pop\n        /* \"contracts/BusFareSystem.sol\":913:914  _ */\n      pop\n        /* \"contracts/BusFareSystem.sol\":2099:2395  function withdrawFunds() public onlyBusCompany {\r... */\n      jump\t// out\n        /* \"contracts/BusFareSystem.sol\":121:144  address public customer */\n    tag_19:\n      0x01\n      0x00\n      swap1\n      sload\n      swap1\n      0x0100\n      exp\n      swap1\n      div\n      0xffffffffffffffffffffffffffffffffffffffff\n      and\n      dup2\n      jump\t// out\n        /* \"contracts/BusFareSystem.sol\":2622:2715  function getCurrentStops() public view returns (uint256) {\r... */\n    tag_24:\n        /* \"contracts/BusFareSystem.sol\":2670:2677  uint256 */\n      0x00\n        /* \"contracts/BusFareSystem.sol\":2697:2707  totalStops */\n      sload(0x02)\n        /* \"contracts/BusFareSystem.sol\":2690:2707  return totalStops */\n      swap1\n      pop\n        /* \"contracts/BusFareSystem.sol\":2622:2715  function getCurrentStops() public view returns (uint256) {\r... */\n      swap1\n      jump\t// out\n        /* \"contracts/BusFareSystem.sol\":1302:1564  function calculatePayment() public view returns (uint256) {\r... */\n    tag_29:\n        /* \"contracts/BusFareSystem.sol\":1351:1358  uint256 */\n      0x00\n        /* \"contracts/BusFareSystem.sol\":1389:1390  0 */\n      dup1\n        /* \"contracts/BusFareSystem.sol\":1375:1385  totalStops */\n      sload(0x02)\n        /* \"contracts/BusFareSystem.sol\":1375:1390  totalStops == 0 */\n      eq\n        /* \"contracts/BusFareSystem.sol\":1371:1557  if (totalStops == 0) {\r... */\n      iszero\n      tag_70\n      jumpi\n        /* \"contracts/BusFareSystem.sol\":1414:1415  0 */\n      0x00\n        /* \"contracts/BusFareSystem.sol\":1407:1415  return 0 */\n      swap1\n      pop\n      jump(tag_69)\n        /* \"contracts/BusFareSystem.sol\":1371:1557  if (totalStops == 0) {\r... */\n    tag_70:\n        /* \"contracts/BusFareSystem.sol\":1451:1453  10 */\n      0x0a\n        /* \"contracts/BusFareSystem.sol\":1437:1447  totalStops */\n      sload(0x02)\n        /* \"contracts/BusFareSystem.sol\":1437:1453  totalStops <= 10 */\n      gt\n        /* \"contracts/BusFareSystem.sol\":1433:1557  if (totalStops <= 10) {\r... */\n      tag_72\n      jumpi\n        /* \"contracts/BusFareSystem.sol\":265:272  1 ether */\n      0x0de0b6b3a7640000\n        /* \"contracts/BusFareSystem.sol\":1470:1491  return PRICE_UP_TO_10 */\n      swap1\n      pop\n      jump(tag_69)\n        /* \"contracts/BusFareSystem.sol\":1433:1557  if (totalStops <= 10) {\r... */\n    tag_72:\n        /* \"contracts/BusFareSystem.sol\":320:327  2 ether */\n      0x1bc16d674ec80000\n        /* \"contracts/BusFareSystem.sol\":1524:1545  return PRICE_ABOVE_10 */\n      swap1\n      pop\n        /* \"contracts/BusFareSystem.sol\":1302:1564  function calculatePayment() public view returns (uint256) {\r... */\n    tag_69:\n      swap1\n      jump\t// out\n        /* \"contracts/BusFareSystem.sol\":1106:1240  function addStop() public onlyCustomer {\r... */\n    tag_33:\n        /* \"contracts/BusFareSystem.sol\":726:734  customer */\n      0x01\n      0x00\n      swap1\n      sload\n      swap1\n      0x0100\n      exp\n      swap1\n      div\n      0xffffffffffffffffffffffffffffffffffffffff\n      and\n        /* \"contracts/BusFareSystem.sol\":712:734  msg.sender == customer */\n      0xffffffffffffffffffffffffffffffffffffffff\n      and\n        /* \"contracts/BusFareSystem.sol\":712:722  msg.sender */\n      caller\n        /* \"contracts/BusFareSystem.sol\":712:734  msg.sender == customer */\n      0xffffffffffffffffffffffffffffffffffffffff\n      and\n      eq\n        /* \"contracts/BusFareSystem.sol\":704:766  require(msg.sender == customer, \"Only customer can call this\") */\n      tag_75\n      jumpi\n      mload(0x40)\n      0x08c379a000000000000000000000000000000000000000000000000000000000\n      dup2\n      mstore\n      0x04\n      add\n      tag_76\n      swap1\n      tag_77\n      jump\t// in\n    tag_76:\n      mload(0x40)\n      dup1\n      swap2\n      sub\n      swap1\n      revert\n    tag_75:\n        /* \"contracts/BusFareSystem.sol\":1156:1166  totalStops */\n      0x02\n      0x00\n        /* \"contracts/BusFareSystem.sol\":1156:1168  totalStops++ */\n      dup2\n      sload\n      dup1\n      swap3\n      swap2\n      swap1\n      tag_79\n      swap1\n      tag_80\n      jump\t// in\n    tag_79:\n      swap2\n      swap1\n      pop\n      sstore\n      pop\n        /* \"contracts/BusFareSystem.sol\":1194:1202  customer */\n      0x01\n      0x00\n      swap1\n      sload\n      swap1\n      0x0100\n      exp\n      swap1\n      div\n      0xffffffffffffffffffffffffffffffffffffffff\n      and\n        /* \"contracts/BusFareSystem.sol\":1184:1232  StopAdded(customer, totalStops, block.timestamp) */\n      0xffffffffffffffffffffffffffffffffffffffff\n      and\n      0x426d69ffab26a1103e6e514867caab9be57e854877b63211d20711ad90036e3c\n        /* \"contracts/BusFareSystem.sol\":1204:1214  totalStops */\n      sload(0x02)\n        /* \"contracts/BusFareSystem.sol\":1216:1231  block.timestamp */\n      timestamp\n        /* \"contracts/BusFareSystem.sol\":1184:1232  StopAdded(customer, totalStops, block.timestamp) */\n      mload(0x40)\n      tag_81\n      swap3\n      swap2\n      swap1\n      tag_65\n      jump\t// in\n    tag_81:\n      mload(0x40)\n      dup1\n      swap2\n      sub\n      swap1\n      log2\n        /* \"contracts/BusFareSystem.sol\":1106:1240  function addStop() public onlyCustomer {\r... */\n      jump\t// out\n        /* \"contracts/BusFareSystem.sol\":2455:2562  function getContractBalance() public view returns (uint256) {\r... */\n    tag_36:\n        /* \"contracts/BusFareSystem.sol\":2506:2513  uint256 */\n      0x00\n        /* \"contracts/BusFareSystem.sol\":2533:2554  address(this).balance */\n      selfbalance\n        /* \"contracts/BusFareSystem.sol\":2526:2554  return address(this).balance */\n      swap1\n      pop\n        /* \"contracts/BusFareSystem.sol\":2455:2562  function getContractBalance() public view returns (uint256) {\r... */\n      swap1\n      jump\t// out\n        /* \"contracts/BusFareSystem.sol\":279:327  uint256 public constant PRICE_ABOVE_10 = 2 ether */\n    tag_40:\n        /* \"contracts/BusFareSystem.sol\":320:327  2 ether */\n      0x1bc16d674ec80000\n        /* \"contracts/BusFareSystem.sol\":279:327  uint256 public constant PRICE_ABOVE_10 = 2 ether */\n      dup2\n      jump\t// out\n        /* \"contracts/BusFareSystem.sol\":151:176  uint256 public totalStops */\n    tag_44:\n      sload(0x02)\n      dup2\n      jump\t// out\n        /* \"contracts/BusFareSystem.sol\":224:272  uint256 public constant PRICE_UP_TO_10 = 1 ether */\n    tag_48:\n        /* \"contracts/BusFareSystem.sol\":265:272  1 ether */\n      0x0de0b6b3a7640000\n        /* \"contracts/BusFareSystem.sol\":224:272  uint256 public constant PRICE_UP_TO_10 = 1 ether */\n      dup2\n      jump\t// out\n        /* \"contracts/BusFareSystem.sol\":89:114  address public busCompany */\n    tag_52:\n      0x00\n      dup1\n      sload\n      swap1\n      0x0100\n      exp\n      swap1\n      div\n      0xffffffffffffffffffffffffffffffffffffffff\n      and\n      dup2\n      jump\t// out\n        /* \"contracts/BusFareSystem.sol\":1631:2024  function makePayment() public payable onlyCustomer {\r... */\n    tag_55:\n        /* \"contracts/BusFareSystem.sol\":726:734  customer */\n      0x01\n      0x00\n      swap1\n      sload\n      swap1\n      0x0100\n      exp\n      swap1\n      div\n      0xffffffffffffffffffffffffffffffffffffffff\n      and\n        /* \"contracts/BusFareSystem.sol\":712:734  msg.sender == customer */\n      0xffffffffffffffffffffffffffffffffffffffff\n      and\n        /* \"contracts/BusFareSystem.sol\":712:722  msg.sender */\n      caller\n        /* \"contracts/BusFareSystem.sol\":712:734  msg.sender == customer */\n      0xffffffffffffffffffffffffffffffffffffffff\n      and\n      eq\n        /* \"contracts/BusFareSystem.sol\":704:766  require(msg.sender == customer, \"Only customer can call this\") */\n      tag_84\n      jumpi\n      mload(0x40)\n      0x08c379a000000000000000000000000000000000000000000000000000000000\n      dup2\n      mstore\n      0x04\n      add\n      tag_85\n      swap1\n      tag_77\n      jump\t// in\n    tag_85:\n      mload(0x40)\n      dup1\n      swap2\n      sub\n      swap1\n      revert\n    tag_84:\n        /* \"contracts/BusFareSystem.sol\":1693:1710  uint256 amountDue */\n      0x00\n        /* \"contracts/BusFareSystem.sol\":1713:1731  calculatePayment() */\n      tag_87\n        /* \"contracts/BusFareSystem.sol\":1713:1729  calculatePayment */\n      tag_29\n        /* \"contracts/BusFareSystem.sol\":1713:1731  calculatePayment() */\n      jump\t// in\n    tag_87:\n        /* \"contracts/BusFareSystem.sol\":1693:1731  uint256 amountDue = calculatePayment() */\n      swap1\n      pop\n        /* \"contracts/BusFareSystem.sol\":1763:1764  0 */\n      0x00\n        /* \"contracts/BusFareSystem.sol\":1750:1760  totalStops */\n      sload(0x02)\n        /* \"contracts/BusFareSystem.sol\":1750:1764  totalStops > 0 */\n      gt\n        /* \"contracts/BusFareSystem.sol\":1742:1786  require(totalStops > 0, \"No stops recorded\") */\n      tag_88\n      jumpi\n      mload(0x40)\n      0x08c379a000000000000000000000000000000000000000000000000000000000\n      dup2\n      mstore\n      0x04\n      add\n      tag_89\n      swap1\n      tag_90\n      jump\t// in\n    tag_89:\n      mload(0x40)\n      dup1\n      swap2\n      sub\n      swap1\n      revert\n    tag_88:\n        /* \"contracts/BusFareSystem.sol\":1818:1827  amountDue */\n      dup1\n        /* \"contracts/BusFareSystem.sol\":1805:1814  msg.value */\n      callvalue\n        /* \"contracts/BusFareSystem.sol\":1805:1827  msg.value == amountDue */\n      eq\n        /* \"contracts/BusFareSystem.sol\":1797:1856  require(msg.value == amountDue, \"Incorrect payment amount\") */\n      tag_91\n      jumpi\n      mload(0x40)\n      0x08c379a000000000000000000000000000000000000000000000000000000000\n      dup2\n      mstore\n      0x04\n      add\n      tag_92\n      swap1\n      tag_93\n      jump\t// in\n    tag_92:\n      mload(0x40)\n      dup1\n      swap2\n      sub\n      swap1\n      revert\n    tag_91:\n        /* \"contracts/BusFareSystem.sol\":1894:1902  customer */\n      0x01\n      0x00\n      swap1\n      sload\n      swap1\n      0x0100\n      exp\n      swap1\n      div\n      0xffffffffffffffffffffffffffffffffffffffff\n      and\n        /* \"contracts/BusFareSystem.sol\":1882:1943  PaymentMade(customer, msg.value, totalStops, block.timestamp) */\n      0xffffffffffffffffffffffffffffffffffffffff\n      and\n      0x8e4aa0897527f9d5629d6daf3255e753bfdd9862c1b9803c200a8bd12d5b8625\n        /* \"contracts/BusFareSystem.sol\":1904:1913  msg.value */\n      callvalue\n        /* \"contracts/BusFareSystem.sol\":1915:1925  totalStops */\n      sload(0x02)\n        /* \"contracts/BusFareSystem.sol\":1927:1942  block.timestamp */\n      timestamp\n        /* \"contracts/BusFareSystem.sol\":1882:1943  PaymentMade(customer, msg.value, totalStops, block.timestamp) */\n      mload(0x40)\n      tag_94\n      swap4\n      swap3\n      swap2\n      swap1\n      tag_95\n      jump\t// in\n    tag_94:\n      mload(0x40)\n      dup1\n      swap2\n      sub\n      swap1\n      log2\n        /* \"contracts/BusFareSystem.sol\":2015:2016  0 */\n      0x00\n        /* \"contracts/BusFareSystem.sol\":2002:2012  totalStops */\n      0x02\n        /* \"contracts/BusFareSystem.sol\":2002:2016  totalStops = 0 */\n      dup2\n      swap1\n      sstore\n      pop\n        /* \"contracts/BusFareSystem.sol\":777:778  _ */\n      pop\n        /* \"contracts/BusFareSystem.sol\":1631:2024  function makePayment() public payable onlyCustomer {\r... */\n      jump\t// out\n        /* \"#utility.yul\":7:125   */\n    tag_97:\n        /* \"#utility.yul\":94:118   */\n      tag_99\n        /* \"#utility.yul\":112:117   */\n      dup2\n        /* \"#utility.yul\":94:118   */\n      tag_100\n      jump\t// in\n    tag_99:\n        /* \"#utility.yul\":89:92   */\n      dup3\n        /* \"#utility.yul\":82:119   */\n      mstore\n        /* \"#utility.yul\":72:125   */\n      pop\n      pop\n      jump\t// out\n        /* \"#utility.yul\":131:446   */\n    tag_101:\n      0x00\n        /* \"#utility.yul\":294:361   */\n      tag_103\n        /* \"#utility.yul\":358:360   */\n      0x11\n        /* \"#utility.yul\":353:356   */\n      dup4\n        /* \"#utility.yul\":294:361   */\n      tag_104\n      jump\t// in\n    tag_103:\n        /* \"#utility.yul\":287:361   */\n      swap2\n      pop\n        /* \"#utility.yul\":391:410   */\n      0x4e6f2073746f7073207265636f72646564000000000000000000000000000000\n        /* \"#utility.yul\":387:388   */\n      0x00\n        /* \"#utility.yul\":382:385   */\n      dup4\n        /* \"#utility.yul\":378:389   */\n      add\n        /* \"#utility.yul\":371:411   */\n      mstore\n        /* \"#utility.yul\":437:439   */\n      0x20\n        /* \"#utility.yul\":432:435   */\n      dup3\n        /* \"#utility.yul\":428:440   */\n      add\n        /* \"#utility.yul\":421:440   */\n      swap1\n      pop\n        /* \"#utility.yul\":277:446   */\n      swap2\n      swap1\n      pop\n      jump\t// out\n        /* \"#utility.yul\":452:774   */\n    tag_105:\n      0x00\n        /* \"#utility.yul\":615:682   */\n      tag_107\n        /* \"#utility.yul\":679:681   */\n      0x18\n        /* \"#utility.yul\":674:677   */\n      dup4\n        /* \"#utility.yul\":615:682   */\n      tag_104\n      jump\t// in\n    tag_107:\n        /* \"#utility.yul\":608:682   */\n      swap2\n      pop\n        /* \"#utility.yul\":712:738   */\n      0x496e636f7272656374207061796d656e7420616d6f756e740000000000000000\n        /* \"#utility.yul\":708:709   */\n      0x00\n        /* \"#utility.yul\":703:706   */\n      dup4\n        /* \"#utility.yul\":699:710   */\n      add\n        /* \"#utility.yul\":692:739   */\n      mstore\n        /* \"#utility.yul\":765:767   */\n      0x20\n        /* \"#utility.yul\":760:763   */\n      dup3\n        /* \"#utility.yul\":756:768   */\n      add\n        /* \"#utility.yul\":749:768   */\n      swap1\n      pop\n        /* \"#utility.yul\":598:774   */\n      swap2\n      swap1\n      pop\n      jump\t// out\n        /* \"#utility.yul\":780:1098   */\n    tag_108:\n      0x00\n        /* \"#utility.yul\":943:1010   */\n      tag_110\n        /* \"#utility.yul\":1007:1009   */\n      0x14\n        /* \"#utility.yul\":1002:1005   */\n      dup4\n        /* \"#utility.yul\":943:1010   */\n      tag_104\n      jump\t// in\n    tag_110:\n        /* \"#utility.yul\":936:1010   */\n      swap2\n      pop\n        /* \"#utility.yul\":1040:1062   */\n      0x4e6f2066756e647320746f207769746864726177000000000000000000000000\n        /* \"#utility.yul\":1036:1037   */\n      0x00\n        /* \"#utility.yul\":1031:1034   */\n      dup4\n        /* \"#utility.yul\":1027:1038   */\n      add\n        /* \"#utility.yul\":1020:1063   */\n      mstore\n        /* \"#utility.yul\":1089:1091   */\n      0x20\n        /* \"#utility.yul\":1084:1087   */\n      dup3\n        /* \"#utility.yul\":1080:1092   */\n      add\n        /* \"#utility.yul\":1073:1092   */\n      swap1\n      pop\n        /* \"#utility.yul\":926:1098   */\n      swap2\n      swap1\n      pop\n      jump\t// out\n        /* \"#utility.yul\":1104:1432   */\n    tag_111:\n      0x00\n        /* \"#utility.yul\":1267:1334   */\n      tag_113\n        /* \"#utility.yul\":1331:1333   */\n      0x1e\n        /* \"#utility.yul\":1326:1329   */\n      dup4\n        /* \"#utility.yul\":1267:1334   */\n      tag_104\n      jump\t// in\n    tag_113:\n        /* \"#utility.yul\":1260:1334   */\n      swap2\n      pop\n        /* \"#utility.yul\":1364:1396   */\n      0x4f6e6c792062757320636f6d70616e792063616e2063616c6c20746869730000\n        /* \"#utility.yul\":1360:1361   */\n      0x00\n        /* \"#utility.yul\":1355:1358   */\n      dup4\n        /* \"#utility.yul\":1351:1362   */\n      add\n        /* \"#utility.yul\":1344:1397   */\n      mstore\n        /* \"#utility.yul\":1423:1425   */\n      0x20\n        /* \"#utility.yul\":1418:1421   */\n      dup3\n        /* \"#utility.yul\":1414:1426   */\n      add\n        /* \"#utility.yul\":1407:1426   */\n      swap1\n      pop\n        /* \"#utility.yul\":1250:1432   */\n      swap2\n      swap1\n      pop\n      jump\t// out\n        /* \"#utility.yul\":1438:1763   */\n    tag_114:\n      0x00\n        /* \"#utility.yul\":1601:1668   */\n      tag_116\n        /* \"#utility.yul\":1665:1667   */\n      0x1b\n        /* \"#utility.yul\":1660:1663   */\n      dup4\n        /* \"#utility.yul\":1601:1668   */\n      tag_104\n      jump\t// in\n    tag_116:\n        /* \"#utility.yul\":1594:1668   */\n      swap2\n      pop\n        /* \"#utility.yul\":1698:1727   */\n      0x4f6e6c7920637573746f6d65722063616e2063616c6c20746869730000000000\n        /* \"#utility.yul\":1694:1695   */\n      0x00\n        /* \"#utility.yul\":1689:1692   */\n      dup4\n        /* \"#utility.yul\":1685:1696   */\n      add\n        /* \"#utility.yul\":1678:1728   */\n      mstore\n        /* \"#utility.yul\":1754:1756   */\n      0x20\n        /* \"#utility.yul\":1749:1752   */\n      dup3\n        /* \"#utility.yul\":1745:1757   */\n      add\n        /* \"#utility.yul\":1738:1757   */\n      swap1\n      pop\n        /* \"#utility.yul\":1584:1763   */\n      swap2\n      swap1\n      pop\n      jump\t// out\n        /* \"#utility.yul\":1769:1887   */\n    tag_117:\n        /* \"#utility.yul\":1856:1880   */\n      tag_119\n        /* \"#utility.yul\":1874:1879   */\n      dup2\n        /* \"#utility.yul\":1856:1880   */\n      tag_120\n      jump\t// in\n    tag_119:\n        /* \"#utility.yul\":1851:1854   */\n      dup3\n        /* \"#utility.yul\":1844:1881   */\n      mstore\n        /* \"#utility.yul\":1834:1887   */\n      pop\n      pop\n      jump\t// out\n        /* \"#utility.yul\":1893:2115   */\n    tag_21:\n      0x00\n        /* \"#utility.yul\":2024:2026   */\n      0x20\n        /* \"#utility.yul\":2013:2022   */\n      dup3\n        /* \"#utility.yul\":2009:2027   */\n      add\n        /* \"#utility.yul\":2001:2027   */\n      swap1\n      pop\n        /* \"#utility.yul\":2037:2108   */\n      tag_122\n        /* \"#utility.yul\":2105:2106   */\n      0x00\n        /* \"#utility.yul\":2094:2103   */\n      dup4\n        /* \"#utility.yul\":2090:2107   */\n      add\n        /* \"#utility.yul\":2081:2087   */\n      dup5\n        /* \"#utility.yul\":2037:2108   */\n      tag_97\n      jump\t// in\n    tag_122:\n        /* \"#utility.yul\":1991:2115   */\n      swap3\n      swap2\n      pop\n      pop\n      jump\t// out\n        /* \"#utility.yul\":2121:2540   */\n    tag_90:\n      0x00\n        /* \"#utility.yul\":2325:2327   */\n      0x20\n        /* \"#utility.yul\":2314:2323   */\n      dup3\n        /* \"#utility.yul\":2310:2328   */\n      add\n        /* \"#utility.yul\":2302:2328   */\n      swap1\n      pop\n        /* \"#utility.yul\":2374:2383   */\n      dup2\n        /* \"#utility.yul\":2368:2372   */\n      dup2\n        /* \"#utility.yul\":2364:2384   */\n      sub\n        /* \"#utility.yul\":2360:2361   */\n      0x00\n        /* \"#utility.yul\":2349:2358   */\n      dup4\n        /* \"#utility.yul\":2345:2362   */\n      add\n        /* \"#utility.yul\":2338:2385   */\n      mstore\n        /* \"#utility.yul\":2402:2533   */\n      tag_124\n        /* \"#utility.yul\":2528:2532   */\n      dup2\n        /* \"#utility.yul\":2402:2533   */\n      tag_101\n      jump\t// in\n    tag_124:\n        /* \"#utility.yul\":2394:2533   */\n      swap1\n      pop\n        /* \"#utility.yul\":2292:2540   */\n      swap2\n      swap1\n      pop\n      jump\t// out\n        /* \"#utility.yul\":2546:2965   */\n    tag_93:\n      0x00\n        /* \"#utility.yul\":2750:2752   */\n      0x20\n        /* \"#utility.yul\":2739:2748   */\n      dup3\n        /* \"#utility.yul\":2735:2753   */\n      add\n        /* \"#utility.yul\":2727:2753   */\n      swap1\n      pop\n        /* \"#utility.yul\":2799:2808   */\n      dup2\n        /* \"#utility.yul\":2793:2797   */\n      dup2\n        /* \"#utility.yul\":2789:2809   */\n      sub\n        /* \"#utility.yul\":2785:2786   */\n      0x00\n        /* \"#utility.yul\":2774:2783   */\n      dup4\n        /* \"#utility.yul\":2770:2787   */\n      add\n        /* \"#utility.yul\":2763:2810   */\n      mstore\n        /* \"#utility.yul\":2827:2958   */\n      tag_126\n        /* \"#utility.yul\":2953:2957   */\n      dup2\n        /* \"#utility.yul\":2827:2958   */\n      tag_105\n      jump\t// in\n    tag_126:\n        /* \"#utility.yul\":2819:2958   */\n      swap1\n      pop\n        /* \"#utility.yul\":2717:2965   */\n      swap2\n      swap1\n      pop\n      jump\t// out\n        /* \"#utility.yul\":2971:3390   */\n    tag_63:\n      0x00\n        /* \"#utility.yul\":3175:3177   */\n      0x20\n        /* \"#utility.yul\":3164:3173   */\n      dup3\n        /* \"#utility.yul\":3160:3178   */\n      add\n        /* \"#utility.yul\":3152:3178   */\n      swap1\n      pop\n        /* \"#utility.yul\":3224:3233   */\n      dup2\n        /* \"#utility.yul\":3218:3222   */\n      dup2\n        /* \"#utility.yul\":3214:3234   */\n      sub\n        /* \"#utility.yul\":3210:3211   */\n      0x00\n        /* \"#utility.yul\":3199:3208   */\n      dup4\n        /* \"#utility.yul\":3195:3212   */\n      add\n        /* \"#utility.yul\":3188:3235   */\n      mstore\n        /* \"#utility.yul\":3252:3383   */\n      tag_128\n        /* \"#utility.yul\":3378:3382   */\n      dup2\n        /* \"#utility.yul\":3252:3383   */\n      tag_108\n      jump\t// in\n    tag_128:\n        /* \"#utility.yul\":3244:3383   */\n      swap1\n      pop\n        /* \"#utility.yul\":3142:3390   */\n      swap2\n      swap1\n      pop\n      jump\t// out\n        /* \"#utility.yul\":3396:3815   */\n    tag_59:\n      0x00\n        /* \"#utility.yul\":3600:3602   */\n      0x20\n        /* \"#utility.yul\":3589:3598   */\n      dup3\n        /* \"#utility.yul\":3585:3603   */\n      add\n        /* \"#utility.yul\":3577:3603   */\n      swap1\n      pop\n        /* \"#utility.yul\":3649:3658   */\n      dup2\n        /* \"#utility.yul\":3643:3647   */\n      dup2\n        /* \"#utility.yul\":3639:3659   */\n      sub\n        /* \"#utility.yul\":3635:3636   */\n      0x00\n        /* \"#utility.yul\":3624:3633   */\n      dup4\n        /* \"#utility.yul\":3620:3637   */\n      add\n        /* \"#utility.yul\":3613:3660   */\n      mstore\n        /* \"#utility.yul\":3677:3808   */\n      tag_130\n        /* \"#utility.yul\":3803:3807   */\n      dup2\n        /* \"#utility.yul\":3677:3808   */\n      tag_111\n      jump\t// in\n    tag_130:\n        /* \"#utility.yul\":3669:3808   */\n      swap1\n      pop\n        /* \"#utility.yul\":3567:3815   */\n      swap2\n      swap1\n      pop\n      jump\t// out\n        /* \"#utility.yul\":3821:4240   */\n    tag_77:\n      0x00\n        /* \"#utility.yul\":4025:4027   */\n      0x20\n        /* \"#utility.yul\":4014:4023   */\n      dup3\n        /* \"#utility.yul\":4010:4028   */\n      add\n        /* \"#utility.yul\":4002:4028   */\n      swap1\n      pop\n        /* \"#utility.yul\":4074:4083   */\n      dup2\n        /* \"#utility.yul\":4068:4072   */\n      dup2\n        /* \"#utility.yul\":4064:4084   */\n      sub\n        /* \"#utility.yul\":4060:4061   */\n      0x00\n        /* \"#utility.yul\":4049:4058   */\n      dup4\n        /* \"#utility.yul\":4045:4062   */\n      add\n        /* \"#utility.yul\":4038:4085   */\n      mstore\n        /* \"#utility.yul\":4102:4233   */\n      tag_132\n        /* \"#utility.yul\":4228:4232   */\n      dup2\n        /* \"#utility.yul\":4102:4233   */\n      tag_114\n      jump\t// in\n    tag_132:\n        /* \"#utility.yul\":4094:4233   */\n      swap1\n      pop\n        /* \"#utility.yul\":3992:4240   */\n      swap2\n      swap1\n      pop\n      jump\t// out\n        /* \"#utility.yul\":4246:4468   */\n    tag_26:\n      0x00\n        /* \"#utility.yul\":4377:4379   */\n      0x20\n        /* \"#utility.yul\":4366:4375   */\n      dup3\n        /* \"#utility.yul\":4362:4380   */\n      add\n        /* \"#utility.yul\":4354:4380   */\n      swap1\n      pop\n        /* \"#utility.yul\":4390:4461   */\n      tag_134\n        /* \"#utility.yul\":4458:4459   */\n      0x00\n        /* \"#utility.yul\":4447:4456   */\n      dup4\n        /* \"#utility.yul\":4443:4460   */\n      add\n        /* \"#utility.yul\":4434:4440   */\n      dup5\n        /* \"#utility.yul\":4390:4461   */\n      tag_117\n      jump\t// in\n    tag_134:\n        /* \"#utility.yul\":4344:4468   */\n      swap3\n      swap2\n      pop\n      pop\n      jump\t// out\n        /* \"#utility.yul\":4474:4806   */\n    tag_65:\n      0x00\n        /* \"#utility.yul\":4633:4635   */\n      0x40\n        /* \"#utility.yul\":4622:4631   */\n      dup3\n        /* \"#utility.yul\":4618:4636   */\n      add\n        /* \"#utility.yul\":4610:4636   */\n      swap1\n      pop\n        /* \"#utility.yul\":4646:4717   */\n      tag_136\n        /* \"#utility.yul\":4714:4715   */\n      0x00\n        /* \"#utility.yul\":4703:4712   */\n      dup4\n        /* \"#utility.yul\":4699:4716   */\n      add\n        /* \"#utility.yul\":4690:4696   */\n      dup6\n        /* \"#utility.yul\":4646:4717   */\n      tag_117\n      jump\t// in\n    tag_136:\n        /* \"#utility.yul\":4727:4799   */\n      tag_137\n        /* \"#utility.yul\":4795:4797   */\n      0x20\n        /* \"#utility.yul\":4784:4793   */\n      dup4\n        /* \"#utility.yul\":4780:4798   */\n      add\n        /* \"#utility.yul\":4771:4777   */\n      dup5\n        /* \"#utility.yul\":4727:4799   */\n      tag_117\n      jump\t// in\n    tag_137:\n        /* \"#utility.yul\":4600:4806   */\n      swap4\n      swap3\n      pop\n      pop\n      pop\n      jump\t// out\n        /* \"#utility.yul\":4812:5254   */\n    tag_95:\n      0x00\n        /* \"#utility.yul\":4999:5001   */\n      0x60\n        /* \"#utility.yul\":4988:4997   */\n      dup3\n        /* \"#utility.yul\":4984:5002   */\n      add\n        /* \"#utility.yul\":4976:5002   */\n      swap1\n      pop\n        /* \"#utility.yul\":5012:5083   */\n      tag_139\n        /* \"#utility.yul\":5080:5081   */\n      0x00\n        /* \"#utility.yul\":5069:5078   */\n      dup4\n        /* \"#utility.yul\":5065:5082   */\n      add\n        /* \"#utility.yul\":5056:5062   */\n      dup7\n        /* \"#utility.yul\":5012:5083   */\n      tag_117\n      jump\t// in\n    tag_139:\n        /* \"#utility.yul\":5093:5165   */\n      tag_140\n        /* \"#utility.yul\":5161:5163   */\n      0x20\n        /* \"#utility.yul\":5150:5159   */\n      dup4\n        /* \"#utility.yul\":5146:5164   */\n      add\n        /* \"#utility.yul\":5137:5143   */\n      dup6\n        /* \"#utility.yul\":5093:5165   */\n      tag_117\n      jump\t// in\n    tag_140:\n        /* \"#utility.yul\":5175:5247   */\n      tag_141\n        /* \"#utility.yul\":5243:5245   */\n      0x40\n        /* \"#utility.yul\":5232:5241   */\n      dup4\n        /* \"#utility.yul\":5228:5246   */\n      add\n        /* \"#utility.yul\":5219:5225   */\n      dup5\n        /* \"#utility.yul\":5175:5247   */\n      tag_117\n      jump\t// in\n    tag_141:\n        /* \"#utility.yul\":4966:5254   */\n      swap5\n      swap4\n      pop\n      pop\n      pop\n      pop\n      jump\t// out\n        /* \"#utility.yul\":5260:5429   */\n    tag_104:\n      0x00\n        /* \"#utility.yul\":5378:5384   */\n      dup3\n        /* \"#utility.yul\":5373:5376   */\n      dup3\n        /* \"#utility.yul\":5366:5385   */\n      mstore\n        /* \"#utility.yul\":5418:5422   */\n      0x20\n        /* \"#utility.yul\":5413:5416   */\n      dup3\n        /* \"#utility.yul\":5409:5423   */\n      add\n        /* \"#utility.yul\":5394:5423   */\n      swap1\n      pop\n        /* \"#utility.yul\":5356:5429   */\n      swap3\n      swap2\n      pop\n      pop\n      jump\t// out\n        /* \"#utility.yul\":5435:5531   */\n    tag_100:\n      0x00\n        /* \"#utility.yul\":5501:5525   */\n      tag_144\n        /* \"#utility.yul\":5519:5524   */\n      dup3\n        /* \"#utility.yul\":5501:5525   */\n      tag_145\n      jump\t// in\n    tag_144:\n        /* \"#utility.yul\":5490:5525   */\n      swap1\n      pop\n        /* \"#utility.yul\":5480:5531   */\n      swap2\n      swap1\n      pop\n      jump\t// out\n        /* \"#utility.yul\":5537:5663   */\n    tag_145:\n      0x00\n        /* \"#utility.yul\":5614:5656   */\n      0xffffffffffffffffffffffffffffffffffffffff\n        /* \"#utility.yul\":5607:5612   */\n      dup3\n        /* \"#utility.yul\":5603:5657   */\n      and\n        /* \"#utility.yul\":5592:5657   */\n      swap1\n      pop\n        /* \"#utility.yul\":5582:5663   */\n      swap2\n      swap1\n      pop\n      jump\t// out\n        /* \"#utility.yul\":5669:5746   */\n    tag_120:\n      0x00\n        /* \"#utility.yul\":5735:5740   */\n      dup2\n        /* \"#utility.yul\":5724:5740   */\n      swap1\n      pop\n        /* \"#utility.yul\":5714:5746   */\n      swap2\n      swap1\n      pop\n      jump\t// out\n        /* \"#utility.yul\":5752:5985   */\n    tag_80:\n      0x00\n        /* \"#utility.yul\":5814:5838   */\n      tag_149\n        /* \"#utility.yul\":5832:5837   */\n      dup3\n        /* \"#utility.yul\":5814:5838   */\n      tag_120\n      jump\t// in\n    tag_149:\n        /* \"#utility.yul\":5805:5838   */\n      swap2\n      pop\n        /* \"#utility.yul\":5860:5926   */\n      0xffffffffffffffffffffffffffffffffffffffffffffffffffffffffffffffff\n        /* \"#utility.yul\":5853:5858   */\n      dup3\n        /* \"#utility.yul\":5850:5927   */\n      eq\n        /* \"#utility.yul\":5847:5849   */\n      iszero\n      tag_150\n      jumpi\n        /* \"#utility.yul\":5930:5948   */\n      tag_151\n      tag_152\n      jump\t// in\n    tag_151:\n        /* \"#utility.yul\":5847:5849   */\n    tag_150:\n        /* \"#utility.yul\":5977:5978   */\n      0x01\n        /* \"#utility.yul\":5970:5975   */\n      dup3\n        /* \"#utility.yul\":5966:5979   */\n      add\n        /* \"#utility.yul\":5959:5979   */\n      swap1\n      pop\n        /* \"#utility.yul\":5795:5985   */\n      swap2\n      swap1\n      pop\n      jump\t// out\n        /* \"#utility.yul\":5991:6171   */\n    tag_152:\n        /* \"#utility.yul\":6039:6116   */\n      0x4e487b7100000000000000000000000000000000000000000000000000000000\n        /* \"#utility.yul\":6036:6037   */\n      0x00\n        /* \"#utility.yul\":6029:6117   */\n      mstore\n        /* \"#utility.yul\":6136:6140   */\n      0x11\n        /* \"#utility.yul\":6133:6134   */\n      0x04\n        /* \"#utility.yul\":6126:6141   */\n      mstore\n        /* \"#utility.yul\":6160:6164   */\n      0x24\n        /* \"#utility.yul\":6157:6158   */\n      0x00\n        /* \"#utility.yul\":6150:6165   */\n      revert\n\n    auxdata: 0xa26469706673582212202559752a3d8a788d46a32985bbacaffc960d3c86891c2930cee0ad8e23b317d864736f6c63430008000033\n}\n",
				"bytecode": {
					"linkReferences": {},
					"object": "608060405234801561001057600080fd5b50604051610c41380380610c41833981810160405281019061003291906100d6565b336000806101000a81548173ffffffffffffffffffffffffffffffffffffffff021916908373ffffffffffffffffffffffffffffffffffffffff16021790555080600160006101000a81548173ffffffffffffffffffffffffffffffffffffffff021916908373ffffffffffffffffffffffffffffffffffffffff160217905550600060028190555050610148565b6000815190506100d081610131565b92915050565b6000602082840312156100e857600080fd5b60006100f6848285016100c1565b91505092915050565b600061010a82610111565b9050919050565b600073ffffffffffffffffffffffffffffffffffffffff82169050919050565b61013a816100ff565b811461014557600080fd5b50565b610aea806101576000396000f3fe60806040526004361061009c5760003560e01c80636f9fb98a116100645780636f9fb98a1461015057806376c7bc261461017b578063ac8ee5ed146101a6578063c12b8593146101d1578063d2c1ec5f146101fc578063d8d79700146102275761009c565b806324600fc3146100a15780632804b2c0146100b857806328f40fa9146100e357806339bde84c1461010e5780635a6e9d5414610139575b600080fd5b3480156100ad57600080fd5b506100b6610231565b005b3480156100c457600080fd5b506100cd6103e1565b6040516100da91906108b9565b60405180910390f35b3480156100ef57600080fd5b506100f8610407565b6040516101059190610974565b60405180910390f35b34801561011a57600080fd5b50610123610411565b6040516101309190610974565b60405180910390f35b34801561014557600080fd5b5061014e61044f565b005b34801561015c57600080fd5b5061016561056d565b6040516101729190610974565b60405180910390f35b34801561018757600080fd5b50610190610575565b60405161019d9190610974565b60405180910390f35b3480156101b257600080fd5b506101bb610581565b6040516101c89190610974565b60405180910390f35b3480156101dd57600080fd5b506101e6610587565b6040516101f39190610974565b60405180910390f35b34801561020857600080fd5b50610211610593565b60405161021e91906108b9565b60405180910390f35b61022f6105b7565b005b60008054906101000a900473ffffffffffffffffffffffffffffffffffffffff1673ffffffffffffffffffffffffffffffffffffffff163373ffffffffffffffffffffffffffffffffffffffff16146102bf576040517f08c379a00000000000000000000000000000000000000000000000000000000081526004016102b690610934565b60405180910390fd5b600047905060008111610307576040517f08c379a00000000000000000000000000000000000000000000000000000000081526004016102fe90610914565b60405180910390fd5b60008054906101000a900473ffffffffffffffffffffffffffffffffffffffff1673ffffffffffffffffffffffffffffffffffffffff167ffbc3a599b784fe88772fc5abcc07223f64ca0b13acc341f4fb1e46bef0510eb4824260405161036f92919061098f565b60405180910390a260008054906101000a900473ffffffffffffffffffffffffffffffffffffffff1673ffffffffffffffffffffffffffffffffffffffff166108fc829081150290604051600060405180830381858888f193505050501580156103dd573d6000803e3d6000fd5b5050565b600160009054906101000a900473ffffffffffffffffffffffffffffffffffffffff1681565b6000600254905090565b6000806002541415610426576000905061044c565b600a6002541161044057670de0b6b3a7640000905061044c565b671bc16d674ec8000090505b90565b600160009054906101000a900473ffffffffffffffffffffffffffffffffffffffff1673ffffffffffffffffffffffffffffffffffffffff163373ffffffffffffffffffffffffffffffffffffffff16146104df576040517f08c379a00000000000000000000000000000000000000000000000000000000081526004016104d690610954565b60405180910390fd5b600260008154809291906104f290610a3c565b9190505550600160009054906101000a900473ffffffffffffffffffffffffffffffffffffffff1673ffffffffffffffffffffffffffffffffffffffff167f426d69ffab26a1103e6e514867caab9be57e854877b63211d20711ad90036e3c6002544260405161056392919061098f565b60405180910390a2565b600047905090565b671bc16d674ec8000081565b60025481565b670de0b6b3a764000081565b60008054906101000a900473ffffffffffffffffffffffffffffffffffffffff1681565b600160009054906101000a900473ffffffffffffffffffffffffffffffffffffffff1673ffffffffffffffffffffffffffffffffffffffff163373ffffffffffffffffffffffffffffffffffffffff1614610647576040517f08c379a000000000000000000000000000000000000000000000000000000000815260040161063e90610954565b60405180910390fd5b6000610651610411565b9050600060025411610698576040517f08c379a000000000000000000000000000000000000000000000000000000000815260040161068f906108d4565b60405180910390fd5b8034146106da576040517f08c379a00000000000000000000000000000000000000000000000000000000081526004016106d1906108f4565b60405180910390fd5b600160009054906101000a900473ffffffffffffffffffffffffffffffffffffffff1673ffffffffffffffffffffffffffffffffffffffff167f8e4aa0897527f9d5629d6daf3255e753bfdd9862c1b9803c200a8bd12d5b86253460025442604051610748939291906109b8565b60405180910390a2600060028190555050565b61076481610a00565b82525050565b60006107776011836109ef565b91507f4e6f2073746f7073207265636f726465640000000000000000000000000000006000830152602082019050919050565b60006107b76018836109ef565b91507f496e636f7272656374207061796d656e7420616d6f756e7400000000000000006000830152602082019050919050565b60006107f76014836109ef565b91507f4e6f2066756e647320746f2077697468647261770000000000000000000000006000830152602082019050919050565b6000610837601e836109ef565b91507f4f6e6c792062757320636f6d70616e792063616e2063616c6c207468697300006000830152602082019050919050565b6000610877601b836109ef565b91507f4f6e6c7920637573746f6d65722063616e2063616c6c207468697300000000006000830152602082019050919050565b6108b381610a32565b82525050565b60006020820190506108ce600083018461075b565b92915050565b600060208201905081810360008301526108ed8161076a565b9050919050565b6000602082019050818103600083015261090d816107aa565b9050919050565b6000602082019050818103600083015261092d816107ea565b9050919050565b6000602082019050818103600083015261094d8161082a565b9050919050565b6000602082019050818103600083015261096d8161086a565b9050919050565b600060208201905061098960008301846108aa565b92915050565b60006040820190506109a460008301856108aa565b6109b160208301846108aa565b9392505050565b60006060820190506109cd60008301866108aa565b6109da60208301856108aa565b6109e760408301846108aa565b949350505050565b600082825260208201905092915050565b6000610a0b82610a12565b9050919050565b600073ffffffffffffffffffffffffffffffffffffffff82169050919050565b6000819050919050565b6000610a4782610a32565b91507fffffffffffffffffffffffffffffffffffffffffffffffffffffffffffffffff821415610a7a57610a79610a85565b5b600182019050919050565b7f4e487b7100000000000000000000000000000000000000000000000000000000600052601160045260246000fdfea26469706673582212202559752a3d8a788d46a32985bbacaffc960d3c86891c2930cee0ad8e23b317d864736f6c63430008000033",
					"opcodes": "PUSH1 0x80 PUSH1 0x40 MSTORE CALLVALUE DUP1 ISZERO PUSH2 0x10 JUMPI PUSH1 0x0 DUP1 REVERT JUMPDEST POP PUSH1 0x40 MLOAD PUSH2 0xC41 CODESIZE SUB DUP1 PUSH2 0xC41 DUP4 CODECOPY DUP2 DUP2 ADD PUSH1 0x40 MSTORE DUP2 ADD SWAP1 PUSH2 0x32 SWAP2 SWAP1 PUSH2 0xD6 JUMP JUMPDEST CALLER PUSH1 0x0 DUP1 PUSH2 0x100 EXP DUP2 SLOAD DUP2 PUSH20 0xFFFFFFFFFFFFFFFFFFFFFFFFFFFFFFFFFFFFFFFF MUL NOT AND SWAP1 DUP4 PUSH20 0xFFFFFFFFFFFFFFFFFFFFFFFFFFFFFFFFFFFFFFFF AND MUL OR SWAP1 SSTORE POP DUP1 PUSH1 0x1 PUSH1 0x0 PUSH2 0x100 EXP DUP2 SLOAD DUP2 PUSH20 0xFFFFFFFFFFFFFFFFFFFFFFFFFFFFFFFFFFFFFFFF MUL NOT AND SWAP1 DUP4 PUSH20 0xFFFFFFFFFFFFFFFFFFFFFFFFFFFFFFFFFFFFFFFF AND MUL OR SWAP1 SSTORE POP PUSH1 0x0 PUSH1 0x2 DUP2 SWAP1 SSTORE POP POP PUSH2 0x148 JUMP JUMPDEST PUSH1 0x0 DUP2 MLOAD SWAP1 POP PUSH2 0xD0 DUP2 PUSH2 0x131 JUMP JUMPDEST SWAP3 SWAP2 POP POP JUMP JUMPDEST PUSH1 0x0 PUSH1 0x20 DUP3 DUP5 SUB SLT ISZERO PUSH2 0xE8 JUMPI PUSH1 0x0 DUP1 REVERT JUMPDEST PUSH1 0x0 PUSH2 0xF6 DUP5 DUP3 DUP6 ADD PUSH2 0xC1 JUMP JUMPDEST SWAP2 POP POP SWAP3 SWAP2 POP POP JUMP JUMPDEST PUSH1 0x0 PUSH2 0x10A DUP3 PUSH2 0x111 JUMP JUMPDEST SWAP1 POP SWAP2 SWAP1 POP JUMP JUMPDEST PUSH1 0x0 PUSH20 0xFFFFFFFFFFFFFFFFFFFFFFFFFFFFFFFFFFFFFFFF DUP3 AND SWAP1 POP SWAP2 SWAP1 POP JUMP JUMPDEST PUSH2 0x13A DUP2 PUSH2 0xFF JUMP JUMPDEST DUP2 EQ PUSH2 0x145 JUMPI PUSH1 0x0 DUP1 REVERT JUMPDEST POP JUMP JUMPDEST PUSH2 0xAEA DUP1 PUSH2 0x157 PUSH1 0x0 CODECOPY PUSH1 0x0 RETURN INVALID PUSH1 0x80 PUSH1 0x40 MSTORE PUSH1 0x4 CALLDATASIZE LT PUSH2 0x9C JUMPI PUSH1 0x0 CALLDATALOAD PUSH1 0xE0 SHR DUP1 PUSH4 0x6F9FB98A GT PUSH2 0x64 JUMPI DUP1 PUSH4 0x6F9FB98A EQ PUSH2 0x150 JUMPI DUP1 PUSH4 0x76C7BC26 EQ PUSH2 0x17B JUMPI DUP1 PUSH4 0xAC8EE5ED EQ PUSH2 0x1A6 JUMPI DUP1 PUSH4 0xC12B8593 EQ PUSH2 0x1D1 JUMPI DUP1 PUSH4 0xD2C1EC5F EQ PUSH2 0x1FC JUMPI DUP1 PUSH4 0xD8D79700 EQ PUSH2 0x227 JUMPI PUSH2 0x9C JUMP JUMPDEST DUP1 PUSH4 0x24600FC3 EQ PUSH2 0xA1 JUMPI DUP1 PUSH4 0x2804B2C0 EQ PUSH2 0xB8 JUMPI DUP1 PUSH4 0x28F40FA9 EQ PUSH2 0xE3 JUMPI DUP1 PUSH4 0x39BDE84C EQ PUSH2 0x10E JUMPI DUP1 PUSH4 0x5A6E9D54 EQ PUSH2 0x139 JUMPI JUMPDEST PUSH1 0x0 DUP1 REVERT JUMPDEST CALLVALUE DUP1 ISZERO PUSH2 0xAD JUMPI PUSH1 0x0 DUP1 REVERT JUMPDEST POP PUSH2 0xB6 PUSH2 0x231 JUMP JUMPDEST STOP JUMPDEST CALLVALUE DUP1 ISZERO PUSH2 0xC4 JUMPI PUSH1 0x0 DUP1 REVERT JUMPDEST POP PUSH2 0xCD PUSH2 0x3E1 JUMP JUMPDEST PUSH1 0x40 MLOAD PUSH2 0xDA SWAP2 SWAP1 PUSH2 0x8B9 JUMP JUMPDEST PUSH1 0x40 MLOAD DUP1 SWAP2 SUB SWAP1 RETURN JUMPDEST CALLVALUE DUP1 ISZERO PUSH2 0xEF JUMPI PUSH1 0x0 DUP1 REVERT JUMPDEST POP PUSH2 0xF8 PUSH2 0x407 JUMP JUMPDEST PUSH1 0x40 MLOAD PUSH2 0x105 SWAP2 SWAP1 PUSH2 0x974 JUMP JUMPDEST PUSH1 0x40 MLOAD DUP1 SWAP2 SUB SWAP1 RETURN JUMPDEST CALLVALUE DUP1 ISZERO PUSH2 0x11A JUMPI PUSH1 0x0 DUP1 REVERT JUMPDEST POP PUSH2 0x123 PUSH2 0x411 JUMP JUMPDEST PUSH1 0x40 MLOAD PUSH2 0x130 SWAP2 SWAP1 PUSH2 0x974 JUMP JUMPDEST PUSH1 0x40 MLOAD DUP1 SWAP2 SUB SWAP1 RETURN JUMPDEST CALLVALUE DUP1 ISZERO PUSH2 0x145 JUMPI PUSH1 0x0 DUP1 REVERT JUMPDEST POP PUSH2 0x14E PUSH2 0x44F JUMP JUMPDEST STOP JUMPDEST CALLVALUE DUP1 ISZERO PUSH2 0x15C JUMPI PUSH1 0x0 DUP1 REVERT JUMPDEST POP PUSH2 0x165 PUSH2 0x56D JUMP JUMPDEST PUSH1 0x40 MLOAD PUSH2 0x172 SWAP2 SWAP1 PUSH2 0x974 JUMP JUMPDEST PUSH1 0x40 MLOAD DUP1 SWAP2 SUB SWAP1 RETURN JUMPDEST CALLVALUE DUP1 ISZERO PUSH2 0x187 JUMPI PUSH1 0x0 DUP1 REVERT JUMPDEST POP PUSH2 0x190 PUSH2 0x575 JUMP JUMPDEST PUSH1 0x40 MLOAD PUSH2 0x19D SWAP2 SWAP1 PUSH2 0x974 JUMP JUMPDEST PUSH1 0x40 MLOAD DUP1 SWAP2 SUB SWAP1 RETURN JUMPDEST CALLVALUE DUP1 ISZERO PUSH2 0x1B2 JUMPI PUSH1 0x0 DUP1 REVERT JUMPDEST POP PUSH2 0x1BB PUSH2 0x581 JUMP JUMPDEST PUSH1 0x40 MLOAD PUSH2 0x1C8 SWAP2 SWAP1 PUSH2 0x974 JUMP JUMPDEST PUSH1 0x40 MLOAD DUP1 SWAP2 SUB SWAP1 RETURN JUMPDEST CALLVALUE DUP1 ISZERO PUSH2 0x1DD JUMPI PUSH1 0x0 DUP1 REVERT JUMPDEST POP PUSH2 0x1E6 PUSH2 0x587 JUMP JUMPDEST PUSH1 0x40 MLOAD PUSH2 0x1F3 SWAP2 SWAP1 PUSH2 0x974 JUMP JUMPDEST PUSH1 0x40 MLOAD DUP1 SWAP2 SUB SWAP1 RETURN JUMPDEST CALLVALUE DUP1 ISZERO PUSH2 0x208 JUMPI PUSH1 0x0 DUP1 REVERT JUMPDEST POP PUSH2 0x211 PUSH2 0x593 JUMP JUMPDEST PUSH1 0x40 MLOAD PUSH2 0x21E SWAP2 SWAP1 PUSH2 0x8B9 JUMP JUMPDEST PUSH1 0x40 MLOAD DUP1 SWAP2 SUB SWAP1 RETURN JUMPDEST PUSH2 0x22F PUSH2 0x5B7 JUMP JUMPDEST STOP JUMPDEST PUSH1 0x0 DUP1 SLOAD SWAP1 PUSH2 0x100 EXP SWAP1 DIV PUSH20 0xFFFFFFFFFFFFFFFFFFFFFFFFFFFFFFFFFFFFFFFF AND PUSH20 0xFFFFFFFFFFFFFFFFFFFFFFFFFFFFFFFFFFFFFFFF AND CALLER PUSH20 0xFFFFFFFFFFFFFFFFFFFFFFFFFFFFFFFFFFFFFFFF AND EQ PUSH2 0x2BF JUMPI PUSH1 0x40 MLOAD PUSH32 0x8C379A000000000000000000000000000000000000000000000000000000000 DUP2 MSTORE PUSH1 0x4 ADD PUSH2 0x2B6 SWAP1 PUSH2 0x934 JUMP JUMPDEST PUSH1 0x40 MLOAD DUP1 SWAP2 SUB SWAP1 REVERT JUMPDEST PUSH1 0x0 SELFBALANCE SWAP1 POP PUSH1 0x0 DUP2 GT PUSH2 0x307 JUMPI PUSH1 0x40 MLOAD PUSH32 0x8C379A000000000000000000000000000000000000000000000000000000000 DUP2 MSTORE PUSH1 0x4 ADD PUSH2 0x2FE SWAP1 PUSH2 0x914 JUMP JUMPDEST PUSH1 0x40 MLOAD DUP1 SWAP2 SUB SWAP1 REVERT JUMPDEST PUSH1 0x0 DUP1 SLOAD SWAP1 PUSH2 0x100 EXP SWAP1 DIV PUSH20 0xFFFFFFFFFFFFFFFFFFFFFFFFFFFFFFFFFFFFFFFF AND PUSH20 0xFFFFFFFFFFFFFFFFFFFFFFFFFFFFFFFFFFFFFFFF AND PUSH32 0xFBC3A599B784FE88772FC5ABCC07223F64CA0B13ACC341F4FB1E46BEF0510EB4 DUP3 TIMESTAMP PUSH1 0x40 MLOAD PUSH2 0x36F SWAP3 SWAP2 SWAP1 PUSH2 0x98F JUMP JUMPDEST PUSH1 0x40 MLOAD DUP1 SWAP2 SUB SWAP1 LOG2 PUSH1 0x0 DUP1 SLOAD SWAP1 PUSH2 0x100 EXP SWAP1 DIV PUSH20 0xFFFFFFFFFFFFFFFFFFFFFFFFFFFFFFFFFFFFFFFF AND PUSH20 0xFFFFFFFFFFFFFFFFFFFFFFFFFFFFFFFFFFFFFFFF AND PUSH2 0x8FC DUP3 SWAP1 DUP2 ISZERO MUL SWAP1 PUSH1 0x40 MLOAD PUSH1 0x0 PUSH1 0x40 MLOAD DUP1 DUP4 SUB DUP2 DUP6 DUP9 DUP9 CALL SWAP4 POP POP POP POP ISZERO DUP1 ISZERO PUSH2 0x3DD JUMPI RETURNDATASIZE PUSH1 0x0 DUP1 RETURNDATACOPY RETURNDATASIZE PUSH1 0x0 REVERT JUMPDEST POP POP JUMP JUMPDEST PUSH1 0x1 PUSH1 0x0 SWAP1 SLOAD SWAP1 PUSH2 0x100 EXP SWAP1 DIV PUSH20 0xFFFFFFFFFFFFFFFFFFFFFFFFFFFFFFFFFFFFFFFF AND DUP2 JUMP JUMPDEST PUSH1 0x0 PUSH1 0x2 SLOAD SWAP1 POP SWAP1 JUMP JUMPDEST PUSH1 0x0 DUP1 PUSH1 0x2 SLOAD EQ ISZERO PUSH2 0x426 JUMPI PUSH1 0x0 SWAP1 POP PUSH2 0x44C JUMP JUMPDEST PUSH1 0xA PUSH1 0x2 SLOAD GT PUSH2 0x440 JUMPI PUSH8 0xDE0B6B3A7640000 SWAP1 POP PUSH2 0x44C JUMP JUMPDEST PUSH8 0x1BC16D674EC80000 SWAP1 POP JUMPDEST SWAP1 JUMP JUMPDEST PUSH1 0x1 PUSH1 0x0 SWAP1 SLOAD SWAP1 PUSH2 0x100 EXP SWAP1 DIV PUSH20 0xFFFFFFFFFFFFFFFFFFFFFFFFFFFFFFFFFFFFFFFF AND PUSH20 0xFFFFFFFFFFFFFFFFFFFFFFFFFFFFFFFFFFFFFFFF AND CALLER PUSH20 0xFFFFFFFFFFFFFFFFFFFFFFFFFFFFFFFFFFFFFFFF AND EQ PUSH2 0x4DF JUMPI PUSH1 0x40 MLOAD PUSH32 0x8C379A000000000000000000000000000000000000000000000000000000000 DUP2 MSTORE PUSH1 0x4 ADD PUSH2 0x4D6 SWAP1 PUSH2 0x954 JUMP JUMPDEST PUSH1 0x40 MLOAD DUP1 SWAP2 SUB SWAP1 REVERT JUMPDEST PUSH1 0x2 PUSH1 0x0 DUP2 SLOAD DUP1 SWAP3 SWAP2 SWAP1 PUSH2 0x4F2 SWAP1 PUSH2 0xA3C JUMP JUMPDEST SWAP2 SWAP1 POP SSTORE POP PUSH1 0x1 PUSH1 0x0 SWAP1 SLOAD SWAP1 PUSH2 0x100 EXP SWAP1 DIV PUSH20 0xFFFFFFFFFFFFFFFFFFFFFFFFFFFFFFFFFFFFFFFF AND PUSH20 0xFFFFFFFFFFFFFFFFFFFFFFFFFFFFFFFFFFFFFFFF AND PUSH32 0x426D69FFAB26A1103E6E514867CAAB9BE57E854877B63211D20711AD90036E3C PUSH1 0x2 SLOAD TIMESTAMP PUSH1 0x40 MLOAD PUSH2 0x563 SWAP3 SWAP2 SWAP1 PUSH2 0x98F JUMP JUMPDEST PUSH1 0x40 MLOAD DUP1 SWAP2 SUB SWAP1 LOG2 JUMP JUMPDEST PUSH1 0x0 SELFBALANCE SWAP1 POP SWAP1 JUMP JUMPDEST PUSH8 0x1BC16D674EC80000 DUP2 JUMP JUMPDEST PUSH1 0x2 SLOAD DUP2 JUMP JUMPDEST PUSH8 0xDE0B6B3A7640000 DUP2 JUMP JUMPDEST PUSH1 0x0 DUP1 SLOAD SWAP1 PUSH2 0x100 EXP SWAP1 DIV PUSH20 0xFFFFFFFFFFFFFFFFFFFFFFFFFFFFFFFFFFFFFFFF AND DUP2 JUMP JUMPDEST PUSH1 0x1 PUSH1 0x0 SWAP1 SLOAD SWAP1 PUSH2 0x100 EXP SWAP1 DIV PUSH20 0xFFFFFFFFFFFFFFFFFFFFFFFFFFFFFFFFFFFFFFFF AND PUSH20 0xFFFFFFFFFFFFFFFFFFFFFFFFFFFFFFFFFFFFFFFF AND CALLER PUSH20 0xFFFFFFFFFFFFFFFFFFFFFFFFFFFFFFFFFFFFFFFF AND EQ PUSH2 0x647 JUMPI PUSH1 0x40 MLOAD PUSH32 0x8C379A000000000000000000000000000000000000000000000000000000000 DUP2 MSTORE PUSH1 0x4 ADD PUSH2 0x63E SWAP1 PUSH2 0x954 JUMP JUMPDEST PUSH1 0x40 MLOAD DUP1 SWAP2 SUB SWAP1 REVERT JUMPDEST PUSH1 0x0 PUSH2 0x651 PUSH2 0x411 JUMP JUMPDEST SWAP1 POP PUSH1 0x0 PUSH1 0x2 SLOAD GT PUSH2 0x698 JUMPI PUSH1 0x40 MLOAD PUSH32 0x8C379A000000000000000000000000000000000000000000000000000000000 DUP2 MSTORE PUSH1 0x4 ADD PUSH2 0x68F SWAP1 PUSH2 0x8D4 JUMP JUMPDEST PUSH1 0x40 MLOAD DUP1 SWAP2 SUB SWAP1 REVERT JUMPDEST DUP1 CALLVALUE EQ PUSH2 0x6DA JUMPI PUSH1 0x40 MLOAD PUSH32 0x8C379A000000000000000000000000000000000000000000000000000000000 DUP2 MSTORE PUSH1 0x4 ADD PUSH2 0x6D1 SWAP1 PUSH2 0x8F4 JUMP JUMPDEST PUSH1 0x40 MLOAD DUP1 SWAP2 SUB SWAP1 REVERT JUMPDEST PUSH1 0x1 PUSH1 0x0 SWAP1 SLOAD SWAP1 PUSH2 0x100 EXP SWAP1 DIV PUSH20 0xFFFFFFFFFFFFFFFFFFFFFFFFFFFFFFFFFFFFFFFF AND PUSH20 0xFFFFFFFFFFFFFFFFFFFFFFFFFFFFFFFFFFFFFFFF AND PUSH32 0x8E4AA0897527F9D5629D6DAF3255E753BFDD9862C1B9803C200A8BD12D5B8625 CALLVALUE PUSH1 0x2 SLOAD TIMESTAMP PUSH1 0x40 MLOAD PUSH2 0x748 SWAP4 SWAP3 SWAP2 SWAP1 PUSH2 0x9B8 JUMP JUMPDEST PUSH1 0x40 MLOAD DUP1 SWAP2 SUB SWAP1 LOG2 PUSH1 0x0 PUSH1 0x2 DUP2 SWAP1 SSTORE POP POP JUMP JUMPDEST PUSH2 0x764 DUP2 PUSH2 0xA00 JUMP JUMPDEST DUP3 MSTORE POP POP JUMP JUMPDEST PUSH1 0x0 PUSH2 0x777 PUSH1 0x11 DUP4 PUSH2 0x9EF JUMP JUMPDEST SWAP2 POP PUSH32 0x4E6F2073746F7073207265636F72646564000000000000000000000000000000 PUSH1 0x0 DUP4 ADD MSTORE PUSH1 0x20 DUP3 ADD SWAP1 POP SWAP2 SWAP1 POP JUMP JUMPDEST PUSH1 0x0 PUSH2 0x7B7 PUSH1 0x18 DUP4 PUSH2 0x9EF JUMP JUMPDEST SWAP2 POP PUSH32 0x496E636F7272656374207061796D656E7420616D6F756E740000000000000000 PUSH1 0x0 DUP4 ADD MSTORE PUSH1 0x20 DUP3 ADD SWAP1 POP SWAP2 SWAP1 POP JUMP JUMPDEST PUSH1 0x0 PUSH2 0x7F7 PUSH1 0x14 DUP4 PUSH2 0x9EF JUMP JUMPDEST SWAP2 POP PUSH32 0x4E6F2066756E647320746F207769746864726177000000000000000000000000 PUSH1 0x0 DUP4 ADD MSTORE PUSH1 0x20 DUP3 ADD SWAP1 POP SWAP2 SWAP1 POP JUMP JUMPDEST PUSH1 0x0 PUSH2 0x837 PUSH1 0x1E DUP4 PUSH2 0x9EF JUMP JUMPDEST SWAP2 POP PUSH32 0x4F6E6C792062757320636F6D70616E792063616E2063616C6C20746869730000 PUSH1 0x0 DUP4 ADD MSTORE PUSH1 0x20 DUP3 ADD SWAP1 POP SWAP2 SWAP1 POP JUMP JUMPDEST PUSH1 0x0 PUSH2 0x877 PUSH1 0x1B DUP4 PUSH2 0x9EF JUMP JUMPDEST SWAP2 POP PUSH32 0x4F6E6C7920637573746F6D65722063616E2063616C6C20746869730000000000 PUSH1 0x0 DUP4 ADD MSTORE PUSH1 0x20 DUP3 ADD SWAP1 POP SWAP2 SWAP1 POP JUMP JUMPDEST PUSH2 0x8B3 DUP2 PUSH2 0xA32 JUMP JUMPDEST DUP3 MSTORE POP POP JUMP JUMPDEST PUSH1 0x0 PUSH1 0x20 DUP3 ADD SWAP1 POP PUSH2 0x8CE PUSH1 0x0 DUP4 ADD DUP5 PUSH2 0x75B JUMP JUMPDEST SWAP3 SWAP2 POP POP JUMP JUMPDEST PUSH1 0x0 PUSH1 0x20 DUP3 ADD SWAP1 POP DUP2 DUP2 SUB PUSH1 0x0 DUP4 ADD MSTORE PUSH2 0x8ED DUP2 PUSH2 0x76A JUMP JUMPDEST SWAP1 POP SWAP2 SWAP1 POP JUMP JUMPDEST PUSH1 0x0 PUSH1 0x20 DUP3 ADD SWAP1 POP DUP2 DUP2 SUB PUSH1 0x0 DUP4 ADD MSTORE PUSH2 0x90D DUP2 PUSH2 0x7AA JUMP JUMPDEST SWAP1 POP SWAP2 SWAP1 POP JUMP JUMPDEST PUSH1 0x0 PUSH1 0x20 DUP3 ADD SWAP1 POP DUP2 DUP2 SUB PUSH1 0x0 DUP4 ADD MSTORE PUSH2 0x92D DUP2 PUSH2 0x7EA JUMP JUMPDEST SWAP1 POP SWAP2 SWAP1 POP JUMP JUMPDEST PUSH1 0x0 PUSH1 0x20 DUP3 ADD SWAP1 POP DUP2 DUP2 SUB PUSH1 0x0 DUP4 ADD MSTORE PUSH2 0x94D DUP2 PUSH2 0x82A JUMP JUMPDEST SWAP1 POP SWAP2 SWAP1 POP JUMP JUMPDEST PUSH1 0x0 PUSH1 0x20 DUP3 ADD SWAP1 POP DUP2 DUP2 SUB PUSH1 0x0 DUP4 ADD MSTORE PUSH2 0x96D DUP2 PUSH2 0x86A JUMP JUMPDEST SWAP1 POP SWAP2 SWAP1 POP JUMP JUMPDEST PUSH1 0x0 PUSH1 0x20 DUP3 ADD SWAP1 POP PUSH2 0x989 PUSH1 0x0 DUP4 ADD DUP5 PUSH2 0x8AA JUMP JUMPDEST SWAP3 SWAP2 POP POP JUMP JUMPDEST PUSH1 0x0 PUSH1 0x40 DUP3 ADD SWAP1 POP PUSH2 0x9A4 PUSH1 0x0 DUP4 ADD DUP6 PUSH2 0x8AA JUMP JUMPDEST PUSH2 0x9B1 PUSH1 0x20 DUP4 ADD DUP5 PUSH2 0x8AA JUMP JUMPDEST SWAP4 SWAP3 POP POP POP JUMP JUMPDEST PUSH1 0x0 PUSH1 0x60 DUP3 ADD SWAP1 POP PUSH2 0x9CD PUSH1 0x0 DUP4 ADD DUP7 PUSH2 0x8AA JUMP JUMPDEST PUSH2 0x9DA PUSH1 0x20 DUP4 ADD DUP6 PUSH2 0x8AA JUMP JUMPDEST PUSH2 0x9E7 PUSH1 0x40 DUP4 ADD DUP5 PUSH2 0x8AA JUMP JUMPDEST SWAP5 SWAP4 POP POP POP POP JUMP JUMPDEST PUSH1 0x0 DUP3 DUP3 MSTORE PUSH1 0x20 DUP3 ADD SWAP1 POP SWAP3 SWAP2 POP POP JUMP JUMPDEST PUSH1 0x0 PUSH2 0xA0B DUP3 PUSH2 0xA12 JUMP JUMPDEST SWAP1 POP SWAP2 SWAP1 POP JUMP JUMPDEST PUSH1 0x0 PUSH20 0xFFFFFFFFFFFFFFFFFFFFFFFFFFFFFFFFFFFFFFFF DUP3 AND SWAP1 POP SWAP2 SWAP1 POP JUMP JUMPDEST PUSH1 0x0 DUP2 SWAP1 POP SWAP2 SWAP1 POP JUMP JUMPDEST PUSH1 0x0 PUSH2 0xA47 DUP3 PUSH2 0xA32 JUMP JUMPDEST SWAP2 POP PUSH32 0xFFFFFFFFFFFFFFFFFFFFFFFFFFFFFFFFFFFFFFFFFFFFFFFFFFFFFFFFFFFFFFFF DUP3 EQ ISZERO PUSH2 0xA7A JUMPI PUSH2 0xA79 PUSH2 0xA85 JUMP JUMPDEST JUMPDEST PUSH1 0x1 DUP3 ADD SWAP1 POP SWAP2 SWAP1 POP JUMP JUMPDEST PUSH32 0x4E487B7100000000000000000000000000000000000000000000000000000000 PUSH1 0x0 MSTORE PUSH1 0x11 PUSH1 0x4 MSTORE PUSH1 0x24 PUSH1 0x0 REVERT INVALID LOG2 PUSH5 0x6970667358 0x22 SLT KECCAK256 0x25 MSIZE PUSH22 0x2A3D8A788D46A32985BBACAFFC960D3C86891C2930CE 0xE0 0xAD DUP15 0x23 0xB3 OR 0xD8 PUSH5 0x736F6C6343 STOP ADDMOD STOP STOP CALLER "
				},
				"gasEstimates": {
					"creation": {
						"codeDepositCost": "558800",
						"executionCost": "infinite",
						"totalCost": "infinite"
					},
					"external": {
						"PRICE_ABOVE_10()": "351",
						"PRICE_UP_TO_10()": "395",
						"addStop()": "infinite",
						"busCompany()": "1299",
						"calculatePayment()": "2064",
						"customer()": "1237",
						"getContractBalance()": "339",
						"getCurrentStops()": "1182",
						"makePayment()": "infinite",
						"totalStops()": "1173",
						"withdrawFunds()": "infinite"
					}
				},
				"methodIdentifiers": {
					"PRICE_ABOVE_10()": "76c7bc26",
					"PRICE_UP_TO_10()": "c12b8593",
					"addStop()": "5a6e9d54",
					"busCompany()": "d2c1ec5f",
					"calculatePayment()": "39bde84c",
					"customer()": "2804b2c0",
					"getContractBalance()": "6f9fb98a",
					"getCurrentStops()": "28f40fa9",
					"makePayment()": "d8d79700",
					"totalStops()": "ac8ee5ed",
					"withdrawFunds()": "24600fc3"
				}
			},
			"storageLayout": {
				"storage": [
					{
						"astId": 3,
						"contract": "contracts/BusFareSystem.sol:BusPayment",
						"label": "busCompany",
						"offset": 0,
						"slot": "0",
						"type": "t_address"
					},
					{
						"astId": 5,
						"contract": "contracts/BusFareSystem.sol:BusPayment",
						"label": "customer",
						"offset": 0,
						"slot": "1",
						"type": "t_address"
					},
					{
						"astId": 7,
						"contract": "contracts/BusFareSystem.sol:BusPayment",
						"label": "totalStops",
						"offset": 0,
						"slot": "2",
						"type": "t_uint256"
					}
				],
				"types": {
					"t_address": {
						"encoding": "inplace",
						"label": "address",
						"numberOfBytes": "20"
					},
					"t_uint256": {
						"encoding": "inplace",
						"label": "uint256",
						"numberOfBytes": "32"
					}
				}
			},
			"userdoc": {
				"kind": "user",
				"methods": {},
				"version": 1
			}
		}
	}
}